:020000040800F2
:1000000068040020511C0008550900085709000821
:100010005B0900085F090008630900080000000090
:100020000000000000000000000000006709000858
:1000300069090008000000006B090008D9020008E7
:100040006B1C00086B1C00086B1C00086B1C000874
:100050006B1C00086B1C00086B1C00086B1C000864
:100060006B1C00086B1C00086B1C00086B1C000854
:100070006B1C00086B1C00086B1C00086B1C000844
:100080006B1C00086B1C00086B1C00086B1C000834
:100090006B1C00086B1C00086B1C00086B1C000824
:1000A0006B1C00086B1C00086B1C00086B1C000814
:1000B0006B1C00086B1C00086B1C00086B1C000804
:1000C0006B1C00086B1C00086B1C00086B1C0008F4
:1000D0006B1C00086B1C00086D0900087B090008F8
:1000E0006B1C00086B1C00086B1C00086B1C0008D4
:1000F0006B1C00086B1C00086B1C00086B1C0008C4
:100100006B1C00086B1C00086B1C00086B1C0008B3
:100110006B1C00086B1C00086B1C00086B1C0008A3
:100120006B1C00086B1C00086B1C00086B1C000893
:10013000DFF80CD001F0D6FD00480047D5010008DB
:100140006804002010B500224FF400514C4801F023
:100150009AF810BD002107E0002201E000BF521C08
:10016000B2F5E15FFAD3491C8142F5D3704710B56F
:1001700001225103424801F086F810BD08B5012163
:10018000102001F08BFA4FF40050ADF8000002206F
:100190008DF8020010208DF803006946384800F001
:1001A000C1FF08BD08B50121042001F077FA102035
:1001B0008DF803000001ADF8000003208DF8020067
:1001C0006946304800F0AEFF4FF480712D4801F0D1
:1001D00056F808BD0EB500F0DBFB00F094F9FFF710
:1001E000E1FFFFF7CBFF49E02749262000F060FA46
:1001F000002841D1244800F073FA00283ED122485B
:1002000000792149C978204A9278CDE900210290ED
:100210001D48437802781DA1244801F095FD00BFD8
:100220008021234800F0C4FE0028F9D00020214995
:10023000087012E01D481F4A1278815C1C4800F0CB
:1002400049FE00BF40211A4800F0B2FE0028F9D054
:1002500018480078401C17490870144801F00AFD3E
:10026000144909788842E5D8FFF781FFC820FFF7D5
:1002700071FFFFF767FF01E0FFF764FFB4E70000DD
:100280000010014000080140340000204D61205260
:100290004649443A202530325825303258253032EC
:1002A0005825303258253032580A000044000020CA
:1002B000003801400000002010B5002807DA0A07C6
:1002C000140E304A00F00F031B1FD45403E00A073A
:1002D000130E2D4A135410BD2C480068401C2B49A6
:1002E00008602B480068401C29490860704710B519
:1002F000284800682849B0FBF1F4B4F1807F01D3AD
:10030000012011E024F07F40401E4FF0E0214861C1
:100310000F214FF0FF30FFF7CFFF00204FF0E0211B
:10032000886107200861002008B100BFFEE70F21A7
:100330004FF0FF30FFF7C0FF10BD0021134A1160DE
:1003400000BF00EB4001C1EBC011104A1268B2EBD4
:10035000C10FF6D3704700210C4A116000BF0B4952
:1003600009688142FBD37047002009490860704743
:10037000074800684FF47A71B0FBF1F07047044809
:100380000068704718ED00E000E400E00400002081
:10039000080000202000002040420F0010B5044655
:1003A00000BF0221FA4801F02CFB0028F9D02146B9
:1003B000F74801F0D3FA00BF0121F54801F021FB15
:1003C0000028F9D0F24801F0CBFAC0B210BD70B5E8
:1003D00004460D464FF48051EE4800F052FF7E2156
:1003E00001EA4400FFF7DAFF2846FFF7D7FF4FF492
:1003F0008051E84800F043FF70BD70B504464FF4EB
:100400008051E44800F03DFF7E2101EA440141F0C3
:100410008000FFF7C3FF0020FFF7C0FF05464FF441
:100420008051DC4800F02BFF284670BD70B50546B2
:100430000C462846FFF7E1FF064646EA0401284637
:10044000FFF7C5FF70BD70B505460C462846FFF79F
:10045000D4FF064626EA04012846FFF7B8FF70BD20
:1004600010B51420FFF7C9FF044603211420FFF73D
:10047000DDFF10BD10B503211420FFF7E4FF10BD10
:1004800010B50F210120FFF7A2FF10BD00B587B006
:100490000121092001F002F90121880301F00BF983
:1004A0004FF46040ADF8180018208DF81B000320B1
:1004B0008DF81A0006A9B74800F034FE1020ADF8F8
:1004C00010000020ADF804004FF48270ADF8060073
:1004D0000020ADF80800ADF80A00ADF80C004FF4AC
:1004E0000070ADF80E000020ADF812000720ADF846
:1004F000140001A9A64801F05BF90121A44801F00C
:10050000FCF907B000BD08B50121082001F0C6F8CC
:100510004FF48050ADF8000003208DF80200102049
:100520008DF8030069469B4800F0FCFD4FF4006025
:10053000ADF800006946974800F0F4FD4FF4805193
:10054000944800F09CFE4FF40061924800F097FE42
:10055000FFF79CFFFFF794FF8D212A20FFF737FF5D
:100560003E212B20FFF733FF1E212D20FFF72FFF09
:1005700000212C20FFF72BFF40211520FFF727FF3C
:100580003D211120FFF723FFFFF76AFF08BD2DE98A
:10059000FE4F0646884691469A46DDF830B0022066
:1005A00002900020019000900C2E06D00E2E09D152
:1005B000122001901020009005E07720019030205B
:1005C000009000E000BF00BF019840F080010220D1
:1005D000FFF7FDFE80210420FFF735FF80210A2070
:1005E000FFF724FF00210120FFF7F1FE002505E0C1
:1005F00018F805100920FFF7EAFE6D1C4D45F7D3EA
:1006000031460120FFF7E3FE0C2E03D180210D209F
:10061000FFF70CFF4FF4FA6500BF0420FFF7EDFE73
:1006200004466D1E35B104F0010018B90098204051
:100630000028F2D080210D20FFF705FF95B306209A
:10064000FFF7DBFE00F01B0068BB00200290019862
:10065000204000F0010008B1012002900C2E24D1AE
:100660000A20FFF7CAFE04460C20FFF7C6FE00F082
:1006700007072FB1601E07EBC000CBF8000002E0B7
:10068000E000CBF8000004B90124102C00DD102498
:10069000002505E00920FFF7B0FE0AF805006D1CF3
:1006A000A542F7D301E0022002900298BDE8FE8F38
:1006B0007CB506460C4607210D20FFF788FE267004
:1006C00001A823460122214600900C20FFF75FFF7E
:1006D000054615B90198102800D0022528467CBD92
:1006E0002DE9FC410446002700210D20FFF76FFE95
:1006F000932020702020607001A82346022221460A
:1007000000900C20FFF743FF06465EB9002503E08A
:10071000605D4740681CC5B2042DF9DB605DB842DE
:1007200000D002263046BDE8FC812DE9F0410746A5
:100730008846154604210520FFF785FE80210A2002
:10074000FFF774FE002405E0395D0920FFF73FFE46
:10075000601CC4B24445F7DB03210120FFF737FEDC
:10076000FF2400BF0520FFF748FE0646601EC4B206
:100770001CB106F004000028F4D02220FFF73DFE53
:1007800028702120FFF739FE6870BDE8F081000075
:1007900000380040000C0140F0B585B007469320BA
:1007A0008DF8040070208DF80500002405E0395D07
:1007B00001AAA01C1154601CC4B2052CF7DB0DF17A
:1007C0000B02072101A8FFF7B0FF04A801AB092223
:1007D00001A900900C20FFF7DAFE05462DB9049818
:1007E000182802D19DF8046000E00026304605B0CC
:1007F000F0BD2DE9F04385B006460F469046994678
:100800008DF804608DF80570002406E018F80410D7
:1008100001AAA01C1154601CC4B2062CF6DB0024F3
:1008200007E019F8041001AA04F108001154601C33
:10083000C4B2042CF5DB04A801AB0C2201A9009082
:100840000E20FFF7A4FE05462DB90820FFF7D5FDC1
:1008500000F0080000B90225284605B0BDE8F08385
:100860007CB505460C46302020706570A21C022124
:100870002046FFF75AFF01A8234604222146009094
:100880000C20FFF784FE064616B90198902800D088
:10089000022630467CBDF0B587B006460F46A02044
:1008A0008DF804008DF805600DF10602022101A803
:1008B000FFF73BFF06A801AB042201A900900C2022
:1008C000FFF765FE054645B90698042805D19DF851
:1008D000040000F00F000A2800D002250DBB002400
:1008E00004E0385D01A90855601CC4B2102CF8DB87
:1008F00005AA102101A8FFF718FF06A801AB1222D4
:1009000001A900900C20FFF742FE054645B9069864
:10091000042805D19DF8040000F00F000A2800D03B
:100920000225284607B0F0BD0EB550208DF8040012
:1009300000208DF805000DF10602022101A8FFF745
:10094000F4FE02A801AB042201A900900C20FFF7DD
:100950001EFE0EBD704700BFFEE700BFFEE700BFF2
:10096000FEE700BFFEE770477047704710B540F2E2
:100970002551054800F032FB10BD10B540F225515D
:10098000024800F02BFB10BD00440040004800402E
:1009900000B585B00121880300F080FE012105200B
:1009A00000F07CFE18208DF813004FF40070ADF8B5
:1009B000100003208DF8120004A96C4800F0B2FB6F
:1009C00004208DF813000002ADF8100004A9674858
:1009D00000F0A8FB4FF4E13000900020ADF80600D5
:1009E000ADF80400ADF80800ADF80C000820ADF833
:1009F0000A0069465E4800F074F901215C4800F085
:100A0000FCF905B000BD00B587B00121480400F035
:100A100052FE0121052000F041FE18208DF81B0038
:100A20000420ADF8180003208DF81A0006A94F48DD
:100A300000F078FB04208DF81B000820ADF81800AA
:100A400006A94A4800F06EFB4FF4165002900020B1
:100A5000ADF80E00ADF80C00ADF81000ADF81400C4
:100A60000C20ADF8120002A9424800F03AF9012228
:100A700040F225513F4800F0CCF901213D4800F0FB
:100A8000BCF94FF4E06000F07BF826208DF80400FC
:100A900000208DF8050001208DF806008DF8070074
:100AA00001A800F072F807B000BD00B587B00121C1
:100AB000880400F000FE0121092000F0EFFD18205D
:100AC0008DF81B004FF48060ADF8180003208DF8FE
:100AD0001A0006A9284800F025FB04208DF81B0009
:100AE0004002ADF8180006A9234800F01BFB4FF4A4
:100AF000E13002900020ADF80E00ADF80C00ADF82A
:100B00001000ADF814000C20ADF8120002A91B482B
:100B100000F0E7F8012240F22551184800F079F979
:100B20000121164800F069F94FF4E06000F028F860
:100B300027208DF8040000208DF805008DF80600B0
:100B400001208DF8070001A800F01FF807B000BDD4
:100B500010B504462146064800F0BCF900BF8021CC
:100B6000034800F025FA0028F9D010BD0008014024
:100B70000038014000440040000C014000480040A3
:100B800031490143314A1160704770B5002100239B
:100B90000F22C47804B32D4C246804F4E064C4F537
:100BA000E064210AC1F10403CA40447804FA03F165
:100BB0008478144021430901254C0678A155047816
:100BC00004F01F050124AC4005786D11AD0005F15E
:100BD000E025C5F8004109E0047804F01F05012470
:100BE000AC401C4D0678761145F8264070BD1A4A77
:100BF0000A400243154B1B1F1A60704739B1134A54
:100C0000121D12680243114B1B1D1A6006E00F4AA9
:100C1000121D126882430D4B1B1D1A607047042879
:100C200008D14FF0E021096941F004014FF0E022C2
:100C3000116107E04FF0E021096921F004014FF054
:100C4000E0221161704700000000FA050CED00E0A1
:100C500000E400E080E100E080FFFF1F10B50446E3
:100C6000FB48844209D10121880300F031FD0021B5
:100C70004FF4804000F02CFD32E0F648844209D168
:100C80000121480400F031FD00214FF4003000F054
:100C90002CFD25E0F048844209D10121880400F0B0
:100CA00024FD00214FF4802000F01FFD18E0EB48E8
:100CB000844209D10121C80400F017FD00214FF43E
:100CC000002000F012FD0BE0E548844208D101212C
:100CD000080500F00AFD00214FF4801000F005FD2A
:100CE00010BD2DE9F04786B005460E460024A24609
:100CF00000BFA1460027B08900B100BF2F462C8A53
:100D00004CF6FF700440F08804432C82AC894EF608
:100D1000F3100440B08831890843718908430443C3
:100D2000AC81AC8A4FF6FF400440B0890443AC82EA
:100D300001A800F046FCC648874202D1DDF810A0A9
:100D400001E0DDF80CA0A88900F4004040B10AEBF6
:100D5000CA0000EB0A1031684900B0FBF1F807E067
:100D60000AEBCA0000EB0A1031688900B0FBF1F809
:100D70006420B8FBF0F004012009642101FB108914
:100D8000A88900F4004040B1322000EBC900B0FB5C
:100D9000F1F000F00700044308E0322000EB0910F6
:100DA0006421B0FBF1F000F00F0004432C8106B089
:100DB000BDE8F0874FF41651016000218180C180A9
:100DC00001810C21418100218181704710B50246CB
:100DD0000020108A4FF2FF0318400B884C882343F1
:100DE0008C882343CC8823431843108210BD0021F4
:100DF000018041808180C180704721B1828942F4A5
:100E00000052828104E082894DF6FF731A4082818C
:100E10007047F0B50346002400260025002040F668
:100E20006A17B94200D100BF1846C1F3421401F05D
:100E30001F06012707FA06F5012C01D10C3004E04A
:100E4000022C01D1103000E014301AB107682F4392
:100E5000076002E00768AF430760F0BD1AB1838AFC
:100E60000B43838202E0838A8B4383827047028A2A
:100E70004FF6F0731A400282028A0A4302827047D8
:100E800082894FF2FF731A40828182890A438281EC
:100E9000704721B1828942F00202828104E0828996
:100EA0004FF6FD731A4082817047028A4FF6DF7356
:100EB0001A400282028A0A430282704721B1028AE2
:100EC00042F48042028204E0028A4BF6FF731A4029
:100ED00002827047C1F30802828070470146888809
:100EE000C0F308007047818941F00101818170479A
:100EF000028BD2B20283028B42EA01220283704744
:100F0000028B02F47F420283028B0A430283704702
:100F100021B1828A42F02002828204E0828A4FF666
:100F2000DF731A408282704721B1828A42F0100238
:100F3000828204E0828A4FF6EF731A408282704701
:100F400021B1828A42F00802828204E0828A4FF64E
:100F5000F7731A408282704721B1828942F40042BD
:100F6000828103E08289C2F30E028281704721B13F
:100F7000828A42F40062828204E0828A4FF2FF7326
:100F80001A4082827047828A4FF6FB731A4082822F
:100F9000828A0A438282704721B1828A42F0020229
:100FA000828204E0828A4FF6FD731A408282704783
:100FB00002460020B1F5007F00D100BF13880B402E
:100FC0000BB1012000E00020704701F40072B2F57F
:100FD000007F00D100BFCA430280704770B502464F
:100FE000002400230025002040F66A16B14200D1FB
:100FF00000BFC1F3421501F01F03012606FA03F3F7
:10100000012D02D19689334006E0022D02D1168AC5
:10101000334001E0968A33400C12012606FA04F4AC
:101020001688344013B10CB1012000E0002070BDDF
:1010300010B50022002340F66A14A14200D100BF7F
:101040000A1201249440A3B2DC43048010BD0000C6
:10105000003801400044004000480040004C00407F
:101060000050004010B50446CC48844208D101210C
:10107000042000F02DFB0021042000F029FB46E0B5
:10108000C748844208D10121082000F021FB00213B
:10109000082000F01DFB3AE0C248844208D101213B
:1010A000102000F015FB0021102000F011FB2EE0B5
:1010B000BD48844208D10121202000F009FB002115
:1010C000202000F005FB22E0B848844208D101212D
:1010D000402000F0FDFA0021402000F0F9FA16E06F
:1010E000B348844208D10121802000F0F1FA0021A8
:1010F000802000F0EDFA0AE0AE48844207D10121D9
:10110000801500F0E5FA0021A01500F0E1FA10BD0D
:1011100010B50121084600F0DBFA0021012000F0A3
:10112000D7FA10BD2DE9F041024600250026002027
:1011300000230024002791F803C00CF00F0591F85C
:1011400003C00CF0100CBCF1000F03D091F802C0EA
:101150004CEA050591F800C0BCF1000F31D01468CD
:1011600000202BE04FF0010C0CFA00F3B1F800C0A6
:101170000CEA03069E4220D183004FF00F0C0CFABC
:1011800003F7BC4305FA03FC4CEA040491F803C0DE
:10119000BCF1280F06D14FF0010C0CFA00FCC2F88C
:1011A00014C00AE091F803C0BCF1480F05D14FF01C
:1011B000010C0CFA00FCC2F810C0401C0828D1D366
:1011C0001460B1F800C0BCF1FF0F34DD546800209A
:1011D0002EE000F1080C4FF0010808FA0CF3B1F80A
:1011E00000C00CEA03069E4221D183004FF00F0C91
:1011F0000CFA03F7BC4305FA03FC4CEA040491F82B
:1012000003C0BCF1280F05D100F1080C08FA0CF856
:10121000C2F8148091F803C0BCF1480F07D100F167
:10122000080C4FF0010808FA0CF8C2F81080401CB6
:101230000828CED35460BDE8F0814FF6FF710180DD
:10124000022181700421C17070470246002093681A
:101250000B400BB1012000E0002070470146886878
:1012600080B2704702460020D3680B400BB10120CA
:1012700000E0002070470146C86880B270470161F5
:101280007047416170470AB1016100E041617047F8
:10129000C16070474FF480320A438261816182618C
:1012A00082698269704702460020434B18684FF6F6
:1012B0008073184040EA021008433F4B18607047A3
:1012C0003E49C8617047F0B50A460023002400215A
:1012D000002500F00046B6F1004F02D1364EF1690C
:1012E00001E0354E7168C0F3034583B200F4401647
:1012F000B6F5401F08D121F070612F4E766826F0B8
:1013000070662D4F7E6012E000F48016B6F5801FE7
:1013100006D1032606FA05F4A14341F0706106E008
:10132000460D360103FA06F6B14341F0706122B171
:10133000460D360103FA06F6314300F00046B6F1D9
:10134000004F02D11C4EF16101E01B4E7160F0BDF7
:1013500030B500228B071C0F0F2303FA04F2164B43
:1013600008338C1053F824309343134C08348D10F9
:1013700044F8253023468C1053F824308C07240F72
:1013800000FA04F423430C4C08348D1044F8253043
:1013900030BD0A49DC310860704700000008014098
:1013A000000C0140001001400014014000180140F1
:1013B000001C0140002001400000014000002042CC
:1013C000DF48006840F00100DD49086008464068D9
:1013D000DC490840DA49486008460068DA490840B4
:1013E000D74908600846006820F480200860084655
:1013F000406820F4FE0048604FF41F00886070478A
:10140000CF49096821F48031CD4A1160114609683D
:1014100021F480211160B0F5803F03D0B0F5802F1A
:101420000ED106E0C649096841F48031C44A116012
:1014300007E0C349096841F4A021C14A116000E0F6
:1014400000BF00BF704710B50146002200230020F6
:101450004A11012A02D1BA4C236806E0022A02D1BD
:10146000B74C236A01E0B64C636A01F01F02012405
:1014700094401C400CB1012000E0002010BD38B5A4
:10148000002000900024002500BF3120FFF7DBFF83
:1014900005460098401C00900098B0F5A06F01D060
:1014A000002DF2D03120FFF7CEFF08B1012400E07B
:1014B0000024204638BD01460020A14A106820F0D3
:1014C000F80040EAC10010607047A049086070470A
:1014D000024600209A4B586820F47C1042EA01032F
:1014E0001843974B58607047984908667047014603
:1014F0000020934A506820F0030008435060704772
:101500008F48406800F00C007047014600208C4A6C
:10151000506820F0F00008435060704701460020FA
:10152000874A506820F4E0600843506070470146E5
:101530000020834A506820F4605040EAC1005060A7
:10154000704729B17E4A527A02437D4B5A7204E0B9
:101550007B4A527A82437A4B5A7270477B49D83120
:101560000860704701460020754A506820F44040EA
:101570000843506070470021714A20321170704A50
:1015800082F82010012802D004280AD104E00121A9
:101590006B4A2032117005E00521694A2032117032
:1015A00000E000BF00BF70476949086070476449A8
:1015B000096A0143624A116270476549443908600B
:1015C000704730B500210022002400235C4D6D6877
:1015D00005F00C0121B1042905D0082923D105E02B
:1015E0005C4D056022E05B4D05601FE0544D6D6869
:1015F00005F47012524D6D6805F48034022505EB38
:1016000092421CB9544D554305600BE04C4D6D683A
:1016100005F400351DB1504D5543056002E04D4DB8
:101620005543056002E04B4D056000BF00BF444DCF
:101630006D6805F0F0010909484D6B5C0568DD40F7
:1016400045603F4D6D6805F4E061090A434D6B5CF0
:101650004568DD4085603A4D6D6805F46051C90A02
:101660003E4D6B5C4568DD40C560354D6D6805F4E9
:101670004041890B3A4D6B5CC568B5FBF3F50561DC
:1016800030BD29B12E4A526902432D4B5A6104E004
:101690002B4A526982432A4B5A61704729B1284A22
:1016A00092690243264B9A6104E0254A926982437B
:1016B000234B9A61704729B1214AD2690243204BDA
:1016C000DA6104E01E4AD26982431D4BDA61704739
:1016D00029B11B4AD2680243194BDA6004E0184A68
:1016E000D2688243164BDA60704729B1144A1269F6
:1016F0000243134B1A6104E0114A12698243104BF2
:101700001A61704712494039086070470F49C86430
:1017100070470B49C87170470948406A40F08070B3
:1017200007494862704701460020054A92680A400E
:101730000AB1012000E0002070470149887270471B
:10174000001002400000FFF8FFFFF6FE00004242DA
:101750008004424200127A0000093D000C00002083
:101760001C00002010B50446BE48844208D1012167
:101770008014FFF7ADFF0021A014FFF7A9FF16E0CA
:10178000B948844208D101210014FFF7AEFF0021BF
:101790002014FFF7AAFF0AE0B448844207D10121D0
:1017A000C013FFF7A2FF0021E013FFF79EFF10BD5B
:1017B00010B50022028802F441520B884C88234362
:1017C0008C882343CC8823430C8923434C892343AF
:1017D0008C892343CC8923431A430280838B4FF2A5
:1017E000FF74234083830B8A038210BD2DE9F04FE1
:1017F00085B005460C464FF0000902274FF000085F
:101800004FF0010B0026B246A88B4FF24001084072
:10181000A88302202884B5F81C90A068022801D172
:1018200000BF38E0A08810B94FF0010B01E04FF085
:10183000020B8D48854200D100E000BF6846FFF7EB
:10184000C0FEDDF800A0E088B0F5007F0AD14FEAC5
:101850001A2000EB80004000A168B0FBF1F0401DB1
:1018600086B20BE04FEA4B10BAFBF0F000EB8000C1
:101870004000A168B0FBF1F0401D86B20A20B6FB23
:10188000F0F606F00108A6EB0800C0F34F074FF68C
:10189000FF7000EA0828022F01DBFF2F02DD02277C
:1018A0004FF00008E08840EA080038432884A08808
:1018B000A1890843618808432188084340F40060F7
:1018C00040EA0909A5F81C9005B0BDE8F08F002199
:1018D000018041808180C180018141818181C181FC
:1018E0000721018270470021018041808180C180F1
:1018F0000221816000218181704721B1028842F07C
:101900004002028004E002884FF6BF731A40028052
:10191000704721B1828B42F48062828304E0828B23
:101920004FF6FF331A408283704730B500240023FE
:101930000C110125A540ABB21AB185881D438580E5
:1019400002E085889D43858030BD1AB183880B43B2
:10195000838002E083888B43838070478181704756
:101960000146888970474FF6FF62914204D0028891
:1019700042F48072028004E002884FF6FF631A404E
:101980000280704721B1828842F00402828004E024
:1019900082884FF6FB731A408280704702884FF2AC
:1019A000FF731A40028002880A4302807047018850
:1019B00041F480510180704721B1028842F4005205
:1019C000028004E002884DF6FF731A4002807047DF
:1019D00002460020012901D0108B00E0908A704758
:1019E0000146088A7047B1F5804F04D1028842F45D
:1019F0008042028004E002884BF6FF731A400280A6
:101A000070470246002013890B400BB1012000E013
:101A100000207047CA4302817047F0B5024600209B
:101A200000240023002501F00F070126BE40B4B2B8
:101A30000B1101269E40B3B2968806EA030516896B
:101A4000264016B10DB1012000E00020F0BD10B518
:101A5000002201F00F040123A3409AB2D343038173
:101A600010BD00000030014000380040003C004044
:101A70000CB50020019000906C48006840F4803064
:101A80006A49086000BF6948006800F400300090AF
:101A90000198401C0190009818B90198B0F5A06F0A
:101AA000F1D16248006800F4003010B101200090CC
:101AB00001E0002000900098012843D15C480068B4
:101AC00040F010005A4908600846006820F0030002
:101AD00008600846006840F002000860534840680B
:101AE000524948600846406848600846406840F4EB
:101AF000806048600846406820F47C1048600846D2
:101B0000406840F4E81048600846006840F0807083
:101B1000086000BF4548006800F000700028F9D058
:101B20004248406820F00300404948600846406849
:101B300040F00200486000BF3C48406800F00C00E4
:101B40000828F9D10CBD10B5FFF792FF10BD10B5F4
:101B50003648006840F00100344908600846406893
:101B60003449084031494860084600683249084015
:101B70002E4908600846006820F480200860084666
:101B8000406820F4FE0048604FF41F008860FFF7B3
:101B9000DAFF4FF000602949086010BD10B5002140
:101BA00000200022214B5B6803F00C0121B10429C5
:101BB00006D0082928D107E0214B224C236027E0DA
:101BC0001F4B204C236023E0184B5B6803F470101C
:101BD000164B5B6803F48032022303EB904022B97A
:101BE000194B4343174C23600DE0104B5B6803F423
:101BF000003323B1144B4343124C236003E0104BDA
:101C00004343104C236003E00D4B0E4C236000BF98
:101C100000BF064B5B68C3F303130C4CE15C094B3C
:101C20001B68CB40074C236010BD00000010024031
:101C3000002002400000FFF8FFFFF6FE08ED00E084
:101C400000127A002000002000093D00240000203E
:101C50000648804706480047FEE7FEE7FEE7FEE746
:101C6000FEE7FEE7FEE7FEE7FEE7FEE74F1B0008A4
:101C700031010008421C10F8011B0029FBD1801A19
:101C800070472DE9F05F0546002092469B46884646
:101C90000646814640241BE02846414647462246E8
:101CA00000F041F853465A46C01A914110D31146EC
:101CB0001846224600F028F82D1A67EB01084F4617
:101CC00022460120002100F01FF817EB00094E41C9
:101CD000201EA4F10104DFDC484631462A46434673
:101CE000BDE8F09F064C074D06E0E06840F00103B8
:101CF00094E8070098471034AC42F6D3FEF71CFA7C
:101D0000FC2100081C220008202A04DB203A00FAEB
:101D100002F1002070479140C2F1200320FA03F342
:101D2000194390407047202A04DB203A21FA02F040
:101D30000021704721FA02F3D040C2F12002914005
:101D400008431946704700000FB4084B10B504A9AA
:101D500002AA039800F01CF8044602A9002000F033
:101D600048FA204610BC5DF814FB0000F32100087F
:101D700002E008C8121F08C1002AFAD17047704754
:101D8000002001E001C1121F002AFBD170470000B2
:101D90002DE9FF4F8DB00F460546002606E02528A9
:101DA0000BD0DDE90F1290476D1C761C28780028B7
:101DB000F5D111B03046BDE8F08F0024A246A1460F
:101DC0000122EC4900E0044315F8013F203B02FAF0
:101DD00003F00842F7D128782A2810D06FF02F029C
:101DE0002878A0F13001092914D80AEB8A0102EB06
:101DF000410144F0020400EB010A6D1CF0E701CF41
:101E00005FEA000A03D544F40054CAF1000A44F022
:101E100002046D1C28782E2817D115F8010F44F004
:101E200004042A280ED06FF02F022878A0F1300188
:101E300009290AD809EB890102EB410100EB0109EC
:101E40006D1CF2E757F8049B6D1C28786C280FD0A6
:101E500006DC4C2817D068280DD06A2814D104E07D
:101E6000742810D07A280FD10DE044F400140AE051
:101E700044F4801401E044F440146978814202D1B2
:101E800004F580146D1C6D1C2A786E2A1FD00CDCA2
:101E9000632A31D004DC002A8BD0582A11D1A3E068
:101EA000642A68D0692A0CD165E0732A2ED004DC3C
:101EB0006F2A73D0702A04D19BE0752A6FD0782ADC
:101EC0006ED01046DDE90F129047761C50E1C4F346
:101ED0000250022806D0032809D0042801CF09D0D7
:101EE000066045E101CFF117C0E9006140E101CF93
:101EF00006803DE106703BE117F8040B8DF8000009
:101F000000208DF80100EB46012003E057F804BBE8
:101F10004FF0FF3061074FF0000102D40DE008F1EF
:101F20000101884649450FDA8045F8DB1BF80810A7
:101F30000029F4D108E008F1010188468142FADB6A
:101F40001BF808100029F6D1DDE90F23AAEB0800E1
:101F50008146214600F036F9304400EB080604E0E3
:101F6000DDE90F121BF8010B9047B8F10108F7D219
:101F700021464846F7E00A21C4F302534FF0000B14
:101F80000891022B04D001CFC117032B09D00AE01E
:101F9000FF1D27F00707F7E8020108E032E01FE025
:101FA00020E000B2C117042B01D140B2C117031EBB
:101FB00071F1000307DA4FF0000CD0EB0C006CEB72
:101FC00001012D2302E0230504D52B238DF82430B5
:101FD000012303E0E30701D02023F7E7984658E008
:101FE0000A2110E010210EE010204FF0000B0890A5
:101FF0000CE010214FF0000B44F004044FF00809EE
:10200000089103E008214FF0000B0891C4F302533C
:10201000022B04D001CF0021032B06D006E0FF1DC8
:1020200027F00707F7E8020103E080B2042B00D194
:10203000C0B24FF0000823072BD5702A07D0DDF877
:1020400020C08CF0100C5CEA0B0C05D00EE0402395
:102050008DF82430012308E050EA010306D0302334
:102060008DF824308DF8252002239846DDF820C015
:102070008CF0080C5CEA0B0C0BD150EA010301D187
:10208000630706D530238DF824304FF00108A9F1FD
:102090000109582A04D038A20B9208AA0A920BE030
:1020A0003AA2F9E75B46089AFFF7EBFD0B9B9B5CB6
:1020B0000A9A521E0A92137050EA0102F2D10A984B
:1020C000ADEB000000F1200B600702D524F4803452
:1020D00001E04FF00109D94502DDA9EB0B0000E05A
:1020E000002000EB0B0141440890AAEB010AE00339
:1020F00006D4DDE90F232146504600F063F806447C
:102100004FF0000908E009A911F80900DDE90F12F4
:10211000904709F10109761CC145F4DBE0030CD5B9
:10212000DDE90F232146504600F04CF8064404E058
:10213000DDE90F1230209047761C0899481E089060
:102140000029F5DC08E00A980A990078491C0A91F0
:10215000DDE90F129047761CBBF10001ABF1010BDA
:10216000F1DC21465046DDE90F2300F019F8064462
:102170006D1C1BE609280100303132333435363707
:1021800038396162636465660000000030313233C3
:102190003435363738394142434445460000000063
:1021A0002DE9F041044600251E461746880404D454
:1021B00005E039462020B0476D1C641EF9D528463D
:1021C000BDE8F0812DE9F041044600251E46904609
:1021D000C80301D5302700E02027880404D505E096
:1021E00041463846B0476D1C641EF9D52846BDE807
:1021F000F0810A68531C0B60107070471C220008A5
:102200000000002034000000701D0008502200086B
:102210003400002034040000801D0008000000008D
:1022200000000000000000000000000001020304A4
:1022300001020304060708090204060800A24A0472
:102240000000000000000000010203040607080966
:0400000508000131BD
:00000001FF
